{
  "transactions": [
    {
      "hash": null,
      "transactionType": "CALL",
      "contractName": "RapidLoans",
      "contractAddress": "0x592bede03180b23dc0d8763666b37103f30191ac",
      "function": "requestLoan(address,uint256)",
      "arguments": [
        "0x66F61903D7FEC18048bEc2e792f272cb8B657733",
        "5"
      ],
      "transaction": {
        "from": "0x12b2434a1022d5787bf06056f2885fe35de62bf8",
        "to": "0x592bede03180b23dc0d8763666b37103f30191ac",
        "gas": "0x36d01",
        "value": "0x0",
        "input": "0x7c46499b00000000000000000000000066f61903d7fec18048bec2e792f272cb8b6577330000000000000000000000000000000000000000000000000000000000000005",
        "nonce": "0x2",
        "chainId": "0xfa2"
      },
      "additionalContracts": [],
      "isFixedGasLimit": false
    }
  ],
  "receipts": [],
  "libraries": [],
  "pending": [],
  "returns": {},
  "timestamp": 1720192943,
  "chain": 4002,
  "commit": "114b853"
}